:1000000080AB00206D540000DB180200415400005A
:100010004154000041540000415400000000000021
:10002000000000000000000000000000615500001A
:100030004154000000000000FD5400004154000045
:100040003557000041740100355700003557000056
:100050003557000035570000355700003557000070
:100060003557000035570000355700003557000060
:100070003557000035570000355700003557000050
:100080003557000035570000355700003557000040
:100090003557000035570000355700003557000030
:1000A0003557000035570000355700003557000020
:1000B0003557000035570000355700003557000010
:1000C0003557000035570000355700003557000000
:1000D00035570000355700003557000035570000F0
:1000E00035570000355700003557000035570000E0
:1000F00035570000355700003557000035570000D0
:1001000053B94AB9002908BF00281CBF4FF0FF317E
:100110004FF0FF3000F00CB8ADF1080C6DE904CEE3
:1001200000F008F8DDF804E0DDE9022304B07047D0
:10013000704700BF2DE9F04786468C460846089E6A
:10014000154674461946002B40F0C2808542B2FA2B
:1001500082F245D94AB1C2F1200300FA02FC2EFA1C
:1001600003F3954043EA0C0C94404FEA154EA8B2B5
:10017000BCFBFEF8230C0EFB18CC08FB00F943EA8D
:100180000C43994528D9EB1808F1FF3704D299455B
:1001900002D9A8F102072B44A3EB0903A4B2B3FBD5
:1001A000FEFC0EFB1C330CFB00F044EA0344A042AF
:1001B00014D92C190CF1FF3304D2A04202D9ACF1AE
:1001C00002032C44241A43EA07401EB1D440002302
:1001D00034607360BDE8F0874746DDE76346F1E7CA
:1001E00092BB431B01214FEA154EAFB2B3FBFEFC9D
:1001F000200C0EFB1C330CFB07F840EA0343984528
:1002000062D9EB180CF1FF3004D2984502D9ACF159
:1002100002002B44A3EB0803A4B2B3FBFEFC0EFBCD
:100220001C330CFB07F744EA0344A7424ED92C19B0
:100230000CF1FF3304D2A74202D9ACF102032C44E3
:10024000E41B43EA0040C0E7C2F1200320FA03F1B7
:10025000954090402EFA03F303434FEA154EAFB298
:10026000B1FBFEFC0EFB1C10190C0CFB07F841EA5D
:100270000041884504FA02F422D969180CF1FF30D4
:1002800004D2884502D9ACF102002944A1EB08014F
:100290009BB2B1FBFEFC0EFB1C110CFB07F743EA03
:1002A00001439F420ED9EB180CF1FF3104D29F425B
:1002B00002D9ACF102012B44DB1B41EA004192E779
:1002C0006046E3E76146F7E76046A3E76346B7E7C2
:1002D000834206D916B9002108467BE7C6E900E04B
:1002E000F9E7B3FA83F78FB9834201D3724508D88F
:1002F000BEEB020460EB030301209C461EB9002103
:1003000068E73846FAE7C6E9004CF8E7C7F1200C81
:10031000BB4022FA0CF41C432EFA0CF120FA0CF329
:10032000B84001434FEA14490EFA07F5B3FBF9F858
:100330001FFA84FE09FB18300B0C08FB0EFA43EA87
:1003400000439A4502FA07F240D9E31808F1FF305A
:1003500004D29A4502D9A8F102002344A3EB0A0370
:1003600089B2B3FBF9F809FB183308FB0EFE41EA2A
:1003700003418E452CD9611808F1FF3304D28E4514
:1003800002D9A8F10203214443EA0040A0FB0298ED
:10039000A1EB0E014145CE46434602D306D14D4561
:1003A00004D2B9EB020E68EB04030138002EA6D08C
:1003B000B5EB0E0261EB030101FA0CFC22FA07F324
:1003C0004CEA0303F940C6E9003198E74046C5E727
:1003D0004346D9E710F8012B11F8013B012A28BF49
:1003E0009A42F7D0D01A7047034611F8012B03F850
:1003F000012B002AF9D17047034613F8012B002A7C
:10040000FBD1181A013870472DE9F04F87B0054627
:10041000039117461E46836804AA5B689847002824
:1004200031DBDDE9044AA7FB04B307FB0A37584672
:1004300019A3D3E900233946FFF762FEDFF8608095
:1004400002904FF0FF39D94578EB07031ED3A6FB86
:1004500004B406FB0A4410A3D3E9002321465846FE
:10046000FFF74EFED94578EB040403460ED30299FC
:10047000AA6899420DD3BDF840100091146828462F
:10048000DDE90221A04707B0BDE8F08F6FF08500DD
:10049000F9E76FF01500F6E700CA9A3B000000008C
:1004A000FFC99A3B00000000F7B5B24DD5F85C31AA
:1004B000996811F0010121D101AA40F6034006F02C
:1004C000ADF8044600286AD10198C3681B789BB92F
:1004D000BFF35B8FD5F8D430BFF35B8F05F1D40247
:1004E00003F00903BFF35B8F52E8001F42E80034BA
:1004F000002CF9D1BFF35B8F19F07EFE01AA002119
:1005000041F2030006F08AF80446002847D1019B17
:10051000994EDA68D2F80100D2F8051003C61846E1
:1005200019F06AFE214601AA41F2010006F076F8B0
:100530000446A0BB0198C3685A7885F870205A8891
:10054000A5F872201A7985F87120B3F80720A5F86C
:100550007420B3F80530A5F8763019F04DFE214629
:1005600001AA41F2020006F059F80446B8B9019F09
:10057000FA68531C413218685968344603C408337A
:1005800093422646F7D17D4821F066FA384619F0A5
:1005900033FE95F87C305F0604D46FF012042046D9
:1005A00003B0F0BD01AA002142F2030006F036F8C4
:1005B00004460028F3D1019B714EDA68D2F801009D
:1005C000D2F8051003C6184619F016FE214601AAF6
:1005D00042F2020006F022F804460028DFD1019C16
:1005E000E368B3F8012091B249B1D97839B1A5F8DF
:1005F0000421DA78114606F1280025F053FB204645
:1006000019F0FAFD95F87C6016F0200618D1022149
:1006100040F66D4005F0A6FF0446002800F0A280D9
:1006200002210C3024F0D9FB0123037046702146CF
:10063000324640F66D4005F0F1FF04460028AED189
:1006400095F89C301E0712D501AA002142F21C0029
:1006500005F0E4FF04460028A1D10198C368D3F84F
:100660000120D3F80530C5E9382319F0C5FD95F808
:10067000D8305C060FD501AA002142F22A0005F00D
:10068000CDFF044600288AD10198C3685B7885F8BD
:10069000203119F0B1FD082142F2010005F062FF9E
:1006A000044600285ED008210C3024F096FB95F813
:1006B000D81011F0400F024640F2022308BF032376
:1006C00088074CBF43F02C0043F00C0095F8D9305C
:1006D0008F0648BF40F0400013F0090F95F8A23094
:1006E00018BF40F4006003F00603CE0748BF40F097
:1006F0001000062B08BF40F4C070002121F023FB3E
:100700002146002242F2010005F088FF044600283D
:100710007FF445AF95F87C30B5F80411980624D4E1
:10072000C9B901AA41F2050005F078FF0446002886
:100730007FF435AFB5F80431019C4BB9E368B3F8E9
:100740000120A5F804219A880E48114625F0AAFA3E
:10075000204619F051FD082140F6014005F002FF46
:10076000044688B96FF0680419E70029F3D16FF0E7
:10077000040414E760000020D8000020E0000020FE
:10078000380100206801002008210C3024F025FBEE
:1007900095F8D830D907024652D42D484FF0005171
:1007A00021F0D1FA2146002240F6014005F036FF43
:1007B000044600287FF4F3AE014601AA4FF601403B
:1007C00005F02CFF044620BB019819F015FD2146C9
:1007D00001AA4FF6024005F021FF0446C8B901986E
:1007E000C368B3F80130A5F8C13019F005FD95F8DC
:1007F000C1305B070DD501AA21464FF6034005F035
:100800000DFF30B90198C3685B7885F8C03019F0E6
:10081000F3FC21F047FE044600287FF4C0AE07F049
:10082000ABFE044600287FF4BAAEEB79002B3FF410
:10083000B6AE0821074821F0E1F906F0B3F9AEE6BB
:1008400001A1D1E90001ABE79088000200800020FF
:1008500010880002340100202DE9F843D0E90C355E
:10086000D0F82C805C193034A0450F46164619D8B4
:100870001D4DA3FB05011AA3D3E90023FFF740FC9C
:100880000346A4EB0800A0FB050123F07F4414A35A
:10089000D3E90023FFF734FC20F07F403C60306058
:1008A000BDE8F883DFF840900DA3D3E90023A8FB4F
:1008B0000901FFF725FC044605F1300008A3D3E940
:1008C0000023A0FB0901FFF71BFC24F07F4420F06C
:1008D0007F403C603060BDE8F88300BFAFF300802C
:1008E0008D49FD1A0700000000CA9A3B0000000075
:1008F000002800F05F812DE9F04FB54C94F86A2094
:1009000012F001058DB040F0A68194F82500FF2378
:1009100000F0030084F8263016F07CF994F86A00A1
:10092000420727D494F8292094F8353004EB82024A
:1009300004EB8303D66AD3F8388086B1A4483146E5
:100940000FF0DCFE33785B0605D506210BF092F93B
:10095000002800F082819E4841460FF0CFFE337898
:1009600013F00E0F40F0B780236A93B10C200DB046
:10097000BDE8F08F2A4604F16B01C0F3C00016F009
:10098000B9FAFF2884F82600CCD0284616F05CF986
:10099000C8E70DF025FA8146002800F06C810DF0C3
:1009A0002BFA8246002800F0638110F09DF905467D
:1009B000002800F06281D0F888004FF6FF732B8585
:1009C00005F11C0B002800F04E8105F1780105F1BE
:1009D0007C020BF05BF9B5F876307E4A23F4EF63C6
:1009E00023F0070343F4887343F00103A5F876303E
:1009F0001346D2F80120C5F89B21C5F8A12113F8B0
:100A0000012B9B88A5F89F31A5F8A53195F89A315F
:100A100002F0010262F3000362F3410385F89A31A8
:100A200095F8393003F03F0363F07F0385F83930E0
:100A300095F88E3023F0070385F88E3095F83C301A
:100A400023F00703002785F83C304FF4C023C5F896
:100A500088312846C5E91277C5F88870A5F88C70EA
:100A60006F86C5F82E7085F83B702F65A5F88E71DE
:100A7000A5F8847112F014FB85F85071C5F85491F3
:100A800010F0EAFB95F8943160F3020385F8943195
:100A900010F0E8FB95F8943160F3C50385F89431C4
:100AA00095F8803167F3410385F8803101212846AC
:100AB00011F03CF805F1D40012F0ACF8C4E9189A32
:100AC000C4F820B0C5E905772F70ED6117F058FA2A
:100AD000002840F0C48094F824300121C3F342037D
:100AE0000DF12B008DF82B300BF06CFA024600282C
:100AF00062D098F8011030460FF0C2FB312336491E
:100B0000A360364BB4F86870A0FB01010025C01843
:100B100041F107012CA3D3E90023C4E90555257051
:100B20006560E560FFF7ECFA20610CF057FC00F11E
:100B300009083FB9357805F00F05A5F10105B5FAAB
:100B400085F56D0994F82400236965F3000010F021
:100B5000010584F824004BD0214A0992002010603E
:100B60000225204A204F04930BAE019305920321E6
:100B7000CDE90200069443460090089607972A465E
:100B80000B950CF02DFB31460DF0F0F9A0B917498B
:100B900005914AF2D8330093CDE90300CDE9010075
:100BA0000797089606944346012203210B950CF003
:100BB000FBFA43E00FF0B4BA236A002B3FF4D6AE41
:100BC0000FF06CFAD2E600BF8D49FD1A0700000055
:100BD000F4390020B1A4020000CA9A3B8C49FD1AE6
:100BE000E8390020FD02010031D5000019FE0000A7
:100BF000274A2848049303F247130694029591214B
:100C00001360A7FB000301FB0731234B0793234B22
:100C100005934FF6FF730992022703930BAE1AA3B5
:100C2000D3E900230B970896FFF76AFA4346CDE90C
:100C300000503A46284603210CF0D2FA31460DF016
:100C400095F90028B8D194F86A300120034384F85C
:100C50006A3015F0C1FF002089E6122087E60FF008
:100C60001DFA032083E605F18000C5F88800ACE694
:100C700048460DF0BBF8072079E650460DF0C2F863
:100C800048460DF0B3F8F6E78D49FD1A070000005D
:100C9000E8390020002AE78431D50000FD02010078
:100CA00070B590F824308AB0C3F342030D46044671
:100CB00001210DF1230016468DF823300BF082F947
:100CC0007178024628460FF0DBFA1F491F4AA0FB45
:100CD0000131981841F1070119A3D3E90023FFF767
:100CE0000FFA23699842054621D21B1A002201926D
:100CF000174A0293174BA21AA3FB02320221920950
:100D000000230A4409AE099113490591CDE9033343
:100D10000321D2B20696009318460CF0C1FA314670
:100D20000DF024F938B9256100200AB070BDFBD957
:100D3000C21A0023DBE70C200AB070BDAFF30080BD
:100D40008D49FD1A0700000000CA9A3B8C49FD1A24
:100D5000F43900208988888831D50000000000001F
:100D60002DE9F04F05468BB08B46012002219A46B3
:100D7000144618F0D9FF00220221814601200AF012
:100D8000D5FF39494FF4D47228460AF05FFFC61CDC
:100D9000F6B2364B00953246012100200CF098FA4D
:100DA00010F0FD0F0CD0324A3249334840F62F0381
:100DB0001FF03CF8404080F311884FF0030002DF41
:100DC0002E4BA4FB0348204625A3D3E9002341462C
:100DD000FFF796F9089506952B690493284B20F0A8
:100DE0007F47A7FB0331E01A264B07934FF007021A
:100DF000254B059302FB07114FF6FE7368EB0101CB
:100E000003934FF47A720023FFF77AF9CDF800B01C
:100E1000CDE9017053463246012100200CF0C4F99F
:100E200010F0FD0F0CD0124A1249134840F644034B
:100E30001EF0FCFF404080F311884FF0030002DFFA
:100E4000B9F1000F02D10BB0BDE8F08F01220221F1
:100E500010460BB0BDE8F04F0AF068BFAFF300805A
:100E60008D49FD1A07000000601A0020910C010056
:100E700094790200587A0200CC74020000CA9A3BAE
:100E80008D49FD1A390C01001560010000000000B9
:100E90002DE9F043C469228D4FF6FF739A428DB05D
:100EA00000F088800546204612F07CFB95F828303B
:100EB000012B00F00F81022B00F00281002B00F0CB
:100EC000E18094F85071002F40F0FD80E68DB4F879
:100ED0003080002E71D1AA8C08F101060023CDE9E3
:100EE0000A33B6B2002A70D094F93930002BC0F220
:100EF00048810023A4F88A3195F82630D90740F1BB
:100F0000EF800023A4F88E310DF1270231462046F0
:100F100012F002F9743000F04681B4F888312BB138
:100F2000B34240F20D819B1BA4F88831B4F88431A0
:100F30002BB1B34240F2FB809B1BA4F88431258E79
:100F400017B9A84500F0EA800135ADB294F8D13068
:100F500013F001065AD1DDE90A130A46002B40F0CE
:100F6000ED80002900F0DC801E461846228DE469E1
:100F70000694CDE903570332A74D0290CDE9001640
:100F8000D2B20121002005950CF08AF910F0FD0F76
:100F900010D00DF015F884420CD0A04AA049A14809
:100FA00040F215531EF042FF404080F311884FF08D
:100FB000030002DF0DB0BDE8F083AA8C4644002395
:100FC000CDE90A33B6B2002A8ED195F82630DA0779
:100FD00097D4B4F88A31002B00F08280B34240F2FB
:100FE000FA809B1BA4F88A31B4F88E31002B8BD089
:100FF0009E4280F0DE809B1B9BB20022062BA4F851
:101000008E31228600F2AC8001277DE794F93920E9
:101010006FF30003002A84F8D13077DB94F8760070
:10102000C0F3C00100F0070016F010FEB4F86E2007
:10103000B4F86C30134403F2D51303447A4A7B4866
:101040000721E3FB0021104671A3D3E90023FFF73A
:1010500057F8DDE90A1320F07F42206922619042AF
:1010600035BF161A801A002000260A46002B7FF48E
:101070007DAF56EA010C7FF479AF002850D01946B5
:101080001E4673E794F88E3003F01803182B7FF494
:1010900018AFA18DB4F886218B1D9A42C4BF931F4F
:1010A0005B1AB4F88211CCBF9BB21346994200F090
:1010B0008C80A4F88231A4F88431A4F8882100E758
:1010C0003D2784F85071394620460DB0BDE8F04305
:1010D00010F0E6B90023A4F88831A4F88431F0E6D2
:1010E000B4F88E31002B83D1628DB4F88C3140F28C
:1010F000E24101FB02F242F2107101FB0323013BCA
:10110000B3FBF2F39BB2A4F88E316FE794F877004B
:10111000012100F0070016F09BFD87E73D4615E72B
:10112000002D4BD000261146304633461EE70023E3
:10113000A4F88431204612F08FF800E7304615E716
:101140000CF0A6FE014600283BD00023A4F888310D
:10115000238DC3801B23037100680CF063FEE5E65A
:1011600094F939309342BFF6CFAEB8F1000F7FF457
:101170004BAFD4F878315A08DB0743D4C4F8782150
:10118000C2E628460AAA0BA904F1D409FFF764FBBA
:10119000484611F081FD18B3484611F07DFD18B3A3
:1011A00000232386A5E69DF82710204610F078F945
:1011B00000E70821204610F073F9FBE6002FB1D1BB
:1011C000F8E60123A4F88831B0E6B4F888110029C4
:1011D0007FF477AE6FE73E21204610F061F9E9E633
:1011E000FF2010F015F9D7E70246D4E91E010AF0F6
:1011F00065FD0028D4D194F83C30580744BFA38D36
:10120000238676E642F00042C4F87821FCE600BF6F
:101210008D49FD1A07000000F90B010094790200C6
:10122000BC7A0200CC7402008C49FD1A00CA9A3BB9
:101230002DE9F04F87B0CDE90423BDF844200378B1
:101240000292BDF84820BDF84080BDF84C50468E53
:10125000B0F82E90B0F814B1019104460392002B1F
:1012600000F08E80013EB6B2A368D4F80C71721BF8
:1012700092B2002B009209DAE168626823F0004321
:1012800091422CBF7F18BF18A360FF1A009A638D8C
:1012900013FB02F39BB2B3FBF8F218FB02F080B22F
:1012A00083421FFA82FA5AD2C01A40F2E2425E49E1
:1012B00002FB00F0A0FB010159A3D3E90023FEF7D4
:1012C0001FFF20F07F400744D94494F839304D4443
:1012D000AD1B554440F2E246DB09E58506FB08F507
:1012E00052D1524A5249534840F6BA031EF09EFD6D
:1012F000404080F311884FF0030002DF0026A9462A
:10130000029BA385039BA4F88C3129462046A4F8B0
:101310002A8011F03DFF484BA18D2B44881DB3FB63
:10132000F5F39AB29042A4F8862102D2521A063AF4
:1013300092B2019BA4F8822113B10023A4F88E314C
:101340003B464A4631462046FFF70AFD94F8803175
:1013500043F0010384F8803107B0BDE8F08F08FB4B
:101360001231314840F2E24389B203FB01F1A1FBA3
:1013700000012BA3D3E90023FEF7C2FE3F1AA3E727
:101380004E445E44B6B26FE7226C0099A36CDFF85E
:1013900098B002FB1133A36416F042FE814694F824
:1013A0007401C0F3420016F03DFE049B814406FB2D
:1013B00003F305FB09F9236509F574291F4B09F2AD
:1013C0003F29A3FB09394FEA994303FB0AF0236441
:1013D000A5EB0309A36C6A080344963A934228BF1D
:1013E0001346C4E911230023C4F87C31A0FB0B0190
:1013F0000BA3D3E90023FEF783FE114B059A3F1A96
:10140000A3FB0230800A06FB00F005A3D3E900230A
:10141000A0FB0B01FEF774FE20F07F4670E700BFD3
:101420008D49FD1A0700000000CA9A3B947902001A
:101430004C750200CC7402007FC3C90183DE1B43DC
:101440005917B7D1000000002DE9F04F04460B6892
:10145000077F1668D3F800A0638CD0F81E0095B003
:1014600015464A7CADF84C30FF2AC7F380138946F5
:101470000C9212908DF83F3073D198461A4612ABF9
:1014800093E803000DF1400B1090ADF84410FF09F4
:101490000AF17101D4F800C00A915B463846CDF8D4
:1014A0002CC00FF0E5FE0A99002842D196F89A3137
:1014B0000A9068F3410367F3000386F89A311098A5
:1014C000BBF80430C6F8A101A6F8A531DAF87130EE
:1014D000C6F89B318B88A6F89F31E38D94F83010C5
:1014E000A9722B81D4F82A306B60D4F83A30AB6102
:1014F00005F1180094F83E30037105210AF062FDF1
:101500006B7F00F03F0060F305036B7794F83F308A
:10151000C3F30401A977A18EE981012803F01F0319
:1015200089B206D91B3303F01F030B2B01D80A9A8B
:1015300059BB0022CAF8142095F820300B9862F3AA
:10154000000385F82030E5680126214626710CF05D
:101550005FFC28682E7129460CF064FC15B0BDE8CC
:10156000F08F0DF1400B10460DF13F015A4615F07A
:1015700049F89DF83F80277F08F102085FFA88F854
:101580008DF83F8008F0010281E7D9F800305A60F9
:10159000E38E2B82EB8940F2E24808FB03F7114609
:1015A000638E0A93304611F007FE94F83F3096F8A8
:1015B00074215B0963F3430286F8742116F030FD51
:1015C0000D9096F87401C0F3420016F02BFD0D9BB0
:1015D000184407FB00F0BA4B00F5742000F23F20DE
:1015E000A3FB00307B08800C963B6862AB6294F8EA
:1015F000313008FB03F3AB63238FA6F88C313946F7
:10160000304611F0C5FDAF4BAF4AC6F890213B44C0
:10161000B3FBF7F39AB2A6F88621298A881D824285
:1016200004DDC1F57F41FA310A4492B2A6F8822165
:101630006B68C6F87831234613F81C2FC2F34018A4
:10164000DA0700F104814FF48073A3839AF826002F
:1016500015F064FD04F12B03002800F0EE80626AAF
:10166000C4F82B20228D9A800C9BFF2B00F0E98080
:10167000BDF84C301298A4F82930C4F82500BBF806
:101680000430A4F8233010989DF83F30C4F81F00B0
:10169000A377EB8963862B8AA386B6F88C31E38621
:1016A00096F87431C3F3420384F8383030460FF0B3
:1016B00027FBA881E08021460B98D9F804400CF064
:1016C000A7FBAB89E3801C23D4F800B02371B8F1E9
:1016D000000F40F0D18084F81C80214658460CF061
:1016E000A1FB95F85B00B5F85080B5F85240012198
:1016F00000F0070016F0ACFA444404F2D514DFF809
:10170000CC810444834672480721E4FB080131235D
:101710000024B360746068A3D3E90023F460FEF78B
:10172000EFFC20F07F4030616D6A0A9A7D1BD9F88A
:101730000C7040F2E24303FB0277022122460120B3
:101740000AF0F4FA50460EF095FF07F2B24702464F
:10175000A7EB0B07A7FB0801174657A3D3E9002304
:10176000FEF7CEFCCDF804A0D9F808305949009115
:1017700020F07F48BA1C3A3BD2B2204643440121B4
:101780000BF0E8FD012800F082809AF82430DB0796
:101790006AD430460FF0B4FA4C4BA5FB035A04460A
:1017A00045A3D3E9002328465146FEF7A9FCD9F802
:1017B0000830494A0792A3F13A09484B069620F0AF
:1017C0007F47A7FB0331E81A454B059340F2D1133D
:1017D000089333694FF0000BCDE903B34FF00703D3
:1017E00003FB07116AEB01014FF47A720023FEF745
:1017F00087FC0334E4B2CDE90170CDF800804B469C
:101800002246012158460BF0CFFC10F0FD0F0CD002
:10181000344A354935484FF4E9731EF007FB404020
:1018200080F311884FF0030002DF012202211046ED
:101830000AF07CFA15B0BDE8F08FC4F82B00988050
:1018400012E70022C4F82520A4F8292017E7254A2A
:1018500027492648F8231EF0E9FA404080F3118812
:101860004FF0030002DFEEE600230122009318464A
:1018700011460BF02DFD8CE76B7F43F040036B7737
:10188000281D14F0C9FC4FF00108E88323E70CF091
:1018900097FB82453FF479AF124A1649134840F24C
:1018A00079231EF0C3FA404080F311884FF0030003
:1018B00002DF6AE7AFF300808D49FD1A07000000E0
:1018C00083DE1B437FC3C901404B4C0000CA9A3BD7
:1018D0008C49FD1AD95F0100A95F01008D49FD1AED
:1018E00015600100447F0200587A0200CC740200A7
:1018F00068770200A07F02002DE9F04F8FB00DF154
:1019000037010446DFF8D0A0DFF8D0800DF13600B3
:101910000CF006FB9DF836309DF837B00B930BF0BA
:101920005DFDDAF80060A6FB085629A3D3E9002381
:101930000027814631462846FEF7E2FBCDE90777CE
:10194000069420F07F44DAF80400254B0593A0FBB1
:1019500008011FA3D3E90023FEF7D2FB214B20F09F
:101960007F40A4FB0331072202FB0411CDE9037081
:10197000E81A66EB01014FF47A720023FEF7C0FB10
:101980000097CDE901404B460B985A4603210BF0D6
:101990000BFC10F0FD0404D06FF08B000FB0BDE81D
:1019A000F08F1148114A00231CF0FCFA20B9DAF834
:1019B0000C000FB0BDE8F08F9DF837209DF8360081
:1019C0000094234603210BF083FC6FF07300E5E7DE
:1019D0008D49FD1A070000001C46002000CA9A3BF2
:1019E000C97301008D49FD1A04460020447B0B0099
:1019F00038B50F4D04460BF0F1FCA9680BF0F0FC74
:101A0000696803460B48B3FBF4F4A1FB00011C44D6
:101A100005A3D3E90023FEF773FB20F07F40844247
:101A200094BF0020012038BD8D49FD1A0700000039
:101A30001C46002000CA9A3BF0B5C468636883B0B6
:101A40000546002B63D117F00FFD002017F032FD83
:101A50000021084617F020FD00222521082017F05C
:101A60005FFD454B019301A817F042FD434940F249
:101A70005B6017F0E5FD237AC3F3420262F30613BD
:101A80002046237216F0ECFC15F01CFC58BB637A60
:101A90009B071FD127682E68384616F075F8064454
:101AA0006A6806F10901012017F012FF17F0D0FF54
:101AB00020460EF0EBFD811C3246C9B2384616F0C6
:101AC00071F8054670BB204616F006F888B900206C
:101AD00003B0F0BD012015F073F84178821C007846
:101AE00017F096FED6E7607A10F0030018BF0120C9
:101AF000F1E7234A2349244840F22C431EF096F98B
:101B0000404080F311884FF0030002DFDFE793F8D5
:101B100020309A0797D01D48214617F063FC17F034
:101B20004BFDD4E7164A1A49174840F214431EF0F9
:101B30007DF9184B0721A5FB030301FB05310CA31D
:101B4000D3E90023FEF7DCFA1349024613481EF0DE
:101B50006DF9404080F311884FF0030002DF104818
:101B6000214617F03FFC17F027FD6FF08B00AFE721
:101B700000CA9A3B00000000D6BE898E555555001C
:101B80007483020038760200CC7402002D7D0100BF
:101B90004C7502008D49FD1A24840200F88302006E
:101BA00031800100000000002DE9F041C468A289E5
:101BB0004FF6FF739A4282B000F0C780054616F0D8
:101BC00077FF2B89628AE08A1A4492B21044637FBD
:101BD000A28280B2411CE1825E064FF00001618268
:101BE00004F1180100F18C8003F03F000B46A17F47
:101BF000009004F11F0014F0C7FA0646D4E90B2345
:101C00001344D4E90D0200210244E1626163A16A38
:101C1000A26394F872208B4228BF0B4612F0040294
:101C2000236377D017F020FC002017F043FC201D21
:101C300017F05EFC2389A17A40F25B6043EA014120
:101C400017F0FEFC304615F0BFFF2146584817F04C
:101C5000C9FB962017F030FE94F85A2094F85B00E8
:101C6000C2F3C003002102F0070200F0070017F0E2
:101C70004DFD204616F07CFF27682E68384615F08B
:101C800083FF06446A6806F10901002017F020FE70
:101C9000804617F0B1FE002017F0C8FE236B94F8C1
:101CA0005B0003F13002A36B00F00700012103EB9E
:101CB000420517F073FC4544054494F85B0000F0BE
:101CC0000700022824D004280CBF4FF4BC7328233B
:101CD00001211D4417F064FC284417F07FFEA18900
:101CE00003313246C9B2384615F05CFF054698BB51
:101CF000204615F0F1FED0B9002002B0BDE8F08119
:101D00000A4603F03F03E18B14F08AFA064675E7B2
:101D10001823DDE7D4E9170109F0D0FF002881D1AD
:101D200094F8723043F0040384F872307AE7214A61
:101D30002149224840F255131EF078F8404080F3C4
:101D400011884FF0030002DFD6E71D48214617F047
:101D500049FB17F031FCCFE7164A1A49174840F201
:101D60004B131EF063F8184B0721A5FB030301FB7F
:101D700005310DA3D3E90023FEF7C2F9134902464A
:101D800013481EF053F8404080F311884FF00300D1
:101D900002DF1048214617F025FB17F00DFC6FF00D
:101DA0008B00AAE7AFF3008000CA9A3B0000000056
:101DB000C98D01009C84020038760200CC740200B8
:101DC0002D7D01004C7502008D49FD1AF084020042
:101DD000F8830200097D01002DE9F04F87B0054628
:101DE000039117461E46836804AA5B68984700283B
:101DF00031DBDDE9044AA7FB04B307FB0A37584689
:101E000019A3D3E900233946FEF77AF9DFF8608099
:101E100002904FF0FF39D94578EB07031ED3A6FB9C
:101E200004B406FB0A4410A3D3E900232146584614
:101E3000FEF766F9D94578EB040403460ED3029900
:101E4000AA6899420DD3BDF8401000911468284645
:101E5000DDE90221A04707B0BDE8F08F6FF08500F3
:101E6000F9E76FF01500F6E700CA9A3B00000000A2
:101E7000FFC99A3B054BBFF35B8F53E8002F43E844
:101E800000010029F9D1BFF35B8F7047702100205A
:101E900010B5044620B9BDE810400D481DF0E1BC66
:101EA0000C4BBFF35B8F1B68BFF35B8F13B10378E1
:101EB000182B0CD108480022002321461BF0B2FE4B
:101EC00028B121780548BDE810401DF0CABC10BDFE
:101ED000DE880200702100208C0D0020F7880200AF
:101EE000014630B104484FF0FF324FF0FF331BF092
:101EF000EFBE6FF0150070478C0D002018289ABFB8
:101F0000024B53F820000248704700BFF86A0200F5
:101F100027890200034B1B7813B90F201DF035BB36
:101F2000704700BFE04B002038B5094D2B78834245
:101F300004460BD0074A082B94BF52F823100649D9
:101F400052F8202005481DF08CFC2C7038BD00BFD5
:101F5000E14B00205C6B020027890200BE8A020070
:101F6000023810B5042804D8DFE800F0161B272E2D
:101F7000300033481DF075FC1DF0E7FB01F00AFE50
:101F800001F05CF801F00CFE012001F0A3FBBDE8BC
:101F900010400220FFF7C8BFBDE8104029481DF0DF
:101FA00060BC29481DF05DFC012001F093FB01F0AD
:101FB00047FFBDE8104001F047B824481DF051FC30
:101FC000012001F087FBF4E72148F7E72148224C84
:101FD0001DF047FC214B01201870FFF74BFF2048F4
:101FE00023F035FF01F056F8002001F073FB01F0FB
:101FF000BBFD01F0B5FF01F053F81A481DF031FCAC
:1020000023781948082B96BF184A194952F823100B
:10201000184A1DF026FC0723237001F03DF91648ED
:102020001DF01FFCBFF34F8F1449154BCA6802F413
:10203000E0621343CB60BFF34F8F00BFFDE700BFEB
:10204000D38A0200F28A0200178B0200368B02004C
:10205000518B02006F8B0200E14B0020E04B00200F
:10206000000000208C8B0200BE8A02005C6B020024
:1020700027890200AD8A0200AF8B020000ED00E06C
:102080000400FA052DE9F341B048B14CB14EB24F0E
:102090001DF0E7FB00201DF078FA6846FFF720FFEF
:1020A000014618B1AD481DF0DCFBF6E79DF8005085
:1020B000A5F10903012B11D82378072B05D1284658
:1020C000FFF71CFF0146A648EDE7062B40F0108104
:1020D0002846FFF713FF01463046E4E72846FFF79E
:1020E0000DFF2378082B96BF9E4A9F4A52F8232063
:1020F000014638461DF0B5FB94F80080B8F1070F93
:10210000DDD0B8F1060F04D1182DE1D1019997481F
:10211000C9E7182D00F2C58101A353F825F000BFCF
:102120008521000099210000C9210000E72100005D
:102130009122000095220000A9220000F122000057
:10214000F1220000F1220000F1220000F122000043
:10215000F1220000F1220000392400007B2200005F
:102160009B20000053240000672400007724000017
:1021700087240000C92200004924000049240000EF
:1021800097240000B8F1000F87D10120FFF7CCFEA3
:102190000120FFF7E5FE80E7B8F1020F7FF47DAF85
:1021A000734D2B785BB173481DF05BFB01F0EAFEC9
:1021B00010B9012001F088FA00232B706DE703208D
:1021C000FFF7B2FE0320E4E76B481DF04AFB6B48C3
:1021D00023F03DFE2378032B7FF45FAF0420FFF74D
:1021E000A3FE0420D5E79DF8041065481DF039FBD7
:1021F00001F0A4FE00287FF450AF9DF80480B8F1F0
:10220000130F02D0B8F1240FD9D15E4B1B78002BED
:102210007FF443AF5C4A13780133DBB24FF47A7535
:102220005D43137042F21072954228BF1546042B8D
:1022300002D956481DF015FB4246294654481DF068
:1022400010FB01F061FE0320FFF76EFE012001F09C
:1022500041FA00F0F9FE4FF4004C40F2E730002163
:102260004FF47A720023E5FB0C01FDF749FF0246AB
:102270000B4642481CF0AAF80FE7B8F1030F03D150
:1022800001F05CFE00289DD042481DF0EAFA04E708
:102290004148FAE741481DF0E4FA384823F0D7FDF9
:1022A000394B00221A70F8E601993D481DF0D9FA21
:1022B000019A092A3FF6F1AE6FF405731341DB076B
:1022C0003FF5EBAE3748E0E737481DF0CAFA237810
:1022D000022B04D1264B354801221A70D5E701F0B4
:1022E00051FE00287FF4D9AE012001F0EDF9D4E6CB
:1022F0009DF8005000F0A8FE00F0F4FF90B101F04E
:10230000DDF9054600287FF4C8AE29481DF0A9FA7A
:10231000012001F0D9F901F035FE00283FF4BDAEEF
:102320002846E2E701F0CAF910B122481DF099FAF7
:10233000002001F0C9F9EB1F062B3FF6AEAEDFE837
:1023400003F03B586266686D740000BFE68B0200C4
:10235000E14B0020A58C0200558C02000A8C020083
:102360002F8C02005C6B020027890200708C020037
:10237000DF4B0020D38C02000B8D020000000020F8
:102380001F8D0200E04B0020DE4B0020428D02003A
:10239000A78D0200F18D0200288E02003F8E020000
:1023A000538E0200748E0200AF8E0200CB8E0200AC
:1023B000F48E0200158F02009DF805209DF8041090
:1023C00039481DF04EFA9DF805109DF8040001F003
:1023D00041FB01F085F901F0B1FD00283FF45DAE4D
:1023E0002378033B012B3FF658AE0520FFF79CFDF9
:1023F00053E69DF805209DF804102C481DF031FA95
:1024000001F06EF949E6012001F0E8FAE3E7002067
:10241000FAE79DF9040001F03BFBDCE724481DF0DE
:1024200020FA0C2001F084FBD5E722481DF019FAB0
:102430000D2001F07DFB30E61F481DF012FA2378D5
:10244000063B012B7FF629AE0620FFF76DFD062027
:102450009FE69DF8041019481DF003FA9DF804004A
:1024600001F0FCF919E616481DF0FBF99DF804008F
:1024700001F00CFA11E613481DF0F3F99DF8040081
:1024800001F020FA09E610481DF0EBF99DF8040070
:1024900001F030FA01E60D4801991DF0E2F908203B
:1024A000A4E70B482946FEE5398F0200538F02004E
:1024B0006E8F02008B8F0200A98F0200C28F020074
:1024C000DE8F0200F68F0200129002002F900200B1
:1024D0004B90020001481DF0C4B900BF6290020099
:1024E00000B50D4889B01DF0BCF900220023CDE9EC
:1024F000062300236FF00802CDE90323CDE9013361
:1025000000930649064B07484FF480521BF012FB1C
:1025100009B05DF804FB00BF829002000062002059
:1025200085200000100F0020036803F01F025B09E4
:10253000026004D0012B034818BF002070474FF001
:10254000A0407047000300500379024603F01F00CB
:102550001268034B9A4208BF40F02000704700BF4A
:10256000EC660200014811461DF07BB9D8900200CC
:1025700008B504481DF075F9BDE808400E201DF0AF
:1025800004B800BF0B9102001FB56F240294044CE5
:102590000194BDF81840009421F084FB04B010BDF4
:1025A000320C00201FB54FF491640294044C019446
:1025B000BDF81840009421F075FB04B010BD00BFB9
:1025C000E45B00201FB5B7240294044C0194BDF8CD
:1025D0001840009421F066FB04B010BD6D6000202F
:1025E0002DE9F04F8FB0CDE90B23A84BA84A1B78FB
:1025F000CDE90901A7484FF480511CF0E5FCB0F586
:10260000805F044603D300200FB0BDE8F08FA24DD9
:10261000A04E4FF00008B8F1000F0BD0C4F5805762
:102620009E4A394630191CF0CFFC0028EBDBB8423B
:10263000E9D20444C4F58059994A2B4649463019D9
:102640001CF0C2FC071EDEDB4F45DCD22744A94646
:102650004FF0000AC7F5805B924A5946F0191CF00A
:10266000B3FC041ECFDB5C45CDD23C444FF0000BE5
:102670004F46BB7C01937B7C0093C4F580513B7C2F
:10268000894A0D9130191CF09FFC0028BBDB0D9985
:102690008842B8D20BF1010B0444BBF1040FC4F51E
:1026A000805104EB06000BD07C4A0D911CF08CFC91
:1026B00000280D99A7DB8842A5D203370444D8E748
:1026C0007A4A0D911CF080FC00289CDB0D99884211
:1026D00099D20AF1010A0444BAF1030F09F10C0975
:1026E000C4F5805B04EB060009D06C4A59461CF027
:1026F0006BFC002887DB584585D20719AAE795F8B7
:102700003C30079395F83B30069395F83A300593A3
:1027100095F83930049395F83830039395F83730AD
:10272000029395F83630019395F83530009395F87B
:1027300034305F4A59461CF047FC0028FFF663AF6F
:102740005845BFF460AF08F10108B8F1030F044425
:1027500005F13D057FF45FAFC4F58055554A294624
:1027600030191CF031FCB0F10008FFF64CAFA84561
:10277000BFF449AF504E474DA0440027B14677B152
:10278000C8F58054454A214605EB08001CF01CFCA6
:102790000028FFF638AFA042BFF435AF8044337C49
:1027A0000093C8F5805A454A3346514605EB080068
:1027B0001CF00AFC041EFFF626AF5445BFF423AFFD
:1027C00044444FF00008327C5FFA88FA524504EB2B
:1027D0000500C4F5805B2CD8394A59461CF0F4FB3F
:1027E000B0F10008FFF60FAFD845BFF40CAF0137CA
:1027F000082FA04406F19106C1D1C8F58054304A93
:10280000214605EB08001CF0DFFB0028FFF6FBAEBD
:10281000A042BFF4F8AE4044BDF86030009380B2EF
:10282000CDE90150DDE90B23DDE9090121F03AFA98
:10283000EAE6BAF1000F0AD0184A59461CF0C4FB68
:102840000028FFF6E0AE5845BFF4DDAE0444912306
:102850000AF104027B4303EB82034B44C4F5805B23
:10286000B3F8032001929A7800925B780E4A594699
:1028700028191CF0A9FB0028FFF6C5AE584508F141
:102880000108BFF4C0AE04449DE700BF6C600020A7
:1028900025910200E34B00206D600020479102006B
:1028A00049910200BA910200619102006A9102000E
:1028B0006C910200AC910200E45B0020BC9102002C
:1028C000A99102002DE9F0411F46144BAAB01B78D4
:1028D0000293134B1B780193124B1B780093124BFE
:1028E0000DF110081B7804460D46164696210F4A36
:1028F00040461CF069FB4046FDF77EFDBDF8C03048
:10290000009380B2CDE901803B46324629462046FD
:1029100021F0C8F92AB0BDE8F08100BFAB0C00205F
:10292000AA0C0020A90C00206C600020DC910200A1
:10293000F8B549481D46194614461CF092FF012D72
:1029400007D12178022902D811201CF03AFE28462E
:10295000F8BD022D14D12378AA2B02D16178122060
:10296000F3E7AB2B02D161781320EEE7B02B4DD10A
:10297000617811F0780FEAD101F07F011420E4E7CB
:10298000012D43D92678B12E1CD0B22E41D16678C4
:10299000072EDCD8A378012BD9D1304B06EBC60427
:1029A00006EB04141C4491220021204623F01AFE59
:1029B00006F5C8712A489123224601F003FF2948F1
:1029C00031461EE0932D1FD16678072EBFD8234BCA
:1029D00006EBC60706EB07171F449122A11C3846D9
:1029E00023F0D8FD3A4606F5C8711D48912301F041
:1029F000E9FE021E314603DA1B481CF032FFA6E74F
:102A00001A481CF02EFFA2E73D2DA0D818482946F1
:102A1000F7E73D2DFAD9022E99D8164BC6EB0612D0
:102A200006EB82021A441146631C3D3453F8040B32
:102A300041F8040BA342F9D11B780B7008483D23E1
:102A400006F5967101F0BEFE021E02DA0A48114632
:102A5000D7E70A483146D0E74C920200E45B0020F9
:102A600080210020C59202007A920200AB920200FF
:102A7000449302006D600020DF9202000E9302007A
:102A800070B5564C86B01422002101A823F0AAFD8F
:102A900020461CF0D1FD40B96FF012045048214689
:102AA00006B0BDE870401CF0DCBE80230293022318
:102AB0004C4D04930C230395ADF81430A6682046C2
:102AC000736801A998470446A0B9B5F90030328966
:102AD00069465343009317F0C1FB044650B9009C6C
:102AE00040F25D7324135C4304F5FA744FF47A7377
:102AF00094FBF3F4002CD1DBB5F900103A482246E0
:102B00001CF0AFFE41F267039C4262DC41F203031A
:102B10009C4259DCB4F57A6F51DA40F63B739C4223
:102B200048DC40F6D7639C423FDC40F673639C422E
:102B300036DCB4F5616F2BDA40F6AB539C4222DCF5
:102B400040F647539C4219DC40F6E3439C4210DDBB
:102B5000052001F089FF052524482A4621461CF05E
:102B600080FE23482A46214606B0BDE870401CF08E
:102B700078BE002001F078FF0025EDE70A2001F083
:102B800073FF0A25E8E7142001F06EFF1425E3E740
:102B9000232001F069FF232516482A462146DEE757
:102BA000322001F061FF3225F6E73C2001F05CFFA6
:102BB0003C25F1E7462001F057FF4625ECE7502081
:102BC00001F052FF5025E7E75A2001F04DFF5A254A
:102BD000E2E7642001F048FF6425DDE7506702006A
:102BE00084930200704B0020A2930200C093020065
:102BF000F0930200DA93020037B50E4C20461CF029
:102C00001BFD88B1A5683A21EB682046984758B962
:102C100023212B696A462046984728B9009B002B40
:102C200004DD09201CF0B1FC03B030BDFCD00A204B
:102C3000F8E700BFC867020037B505460C4601F04B
:102C400083F988B3042D06D0012D04D0052D01D0C1
:102C5000FF2D29D164420023ADF800308DF80230F9
:102C60006FF006039C42B8BF1C46072CA8BF072480
:102C700069460E488DF8034004221CF00FFD014602
:102C800010B10B481CF0EDFD0A2022F06AFE042270
:102C900000230DEB0201054801931CF0FFFC0146E7
:102CA00010B104481CF0DDFD03B030BD246D0200FE
:102CB00018940200479402002DE9F04F072887B0CE
:102CC000054628D83B4F912300FB03731A7C12B3AF
:102CD0005B7C042B01D0402B20D1912305FB037298
:102CE000927C482A03D0442A01D06A2A16D105FBD7
:102CF00003733148B3F81360294632461CF0B1FD26
:102D000001244FF0910805FB08F807EB080999F832
:102D10001030A34205D807B0BDE8F08F0026344636
:102D2000EFE7251D08EB85033B44B3F803A0BEB3D2
:102D300002F0ACFE731CB0FBF3F101FB13030AEBD2
:102D4000030B1FFA8BFB1D48CDF800B052462146FD
:102D50001CF087FDBBF1000F02D058461CF0E5FCCB
:102D600008EB85053D4408226B7815484FF0000BB1
:102D70000DEB0201CDE902BB8DF80830AB788DF880
:102D80000A301CF08BFC0A201CF0CFFC01340C48EC
:102D9000082204A9CDE904BBE4B21CF07FFCB6E72D
:102DA000BAF1000FDCD00748524621461CF059FD0D
:102DB000D346D2E7E45B00207E940200E99402004F
:102DC000D46C02004F95020037B505461A480C46F0
:102DD0001CF032FC70B32846642D184B184D28BFE8
:102DE000642018702C701CB3164B58436423B0FB3E
:102DF000F3F30021134A10480091FDF705FB2B78EF
:102E00000446BBB910481CF017FC20B10F484FF422
:102E1000B0111CF06BFC6CB12B785BB90A481CF04C
:102E20000BFC38B10A4803B0BDE830401CF019BDB6
:102E30002346DEE703B030BD78670200AA0C00200D
:102E4000A90C002040420F00EC660200886D0200D1
:102E50009095020007B5019001A8FFF765FB019B63
:102E600000EB8300054BD0F80027134043F002032A
:102E7000C0F8003703B05DF804FB00BFF0F8FCFFBA
:102E800007B5019001A8FFF74FFB019B00EB830002
:102E9000054BD0F80027134043F00303C0F8003778
:102EA00003B05DF804FB00BFF0F8FCFF2DE9F74F1D
:102EB0001CF0E7FB3D4FDFF8F8A005460024012198
:102EC00038461CF0FFFB1E2022F04BFD394BDFF88B
:102ED000E89004EB0308D346002699F80410D9F8CB
:102EE00000001CF092FB431E594298F80020594103
:102EF0008A4216D0DBF80020AA1A142A11D9E3B2AC
:102F0000012888F80010CBF8005001932246314682
:102F10003DD12A481CF0A5FCE2B2F1B207201CF01A
:102F200040FB0136032E09F1080908F104080BF1F2
:102F3000100BD2D13846002101341CF0C3FB042C05
:102F400007F108070AF1040AB9D11D481CF074FB07
:102F500048B321461A481CF058FB1A4900280B7840
:102F6000D4BF00240124A3421DD0174A1368EB1AD2
:102F7000142B18D900280C7015600FDD13481CF0B5
:102F800070FC0C2003B0BDE8F04F1CF0FEBA1048F6
:102F90001CF067FCE2B2F1B20820C0E70D481CF05B
:102FA00060FC0D20EEE703B0BDE8F08FC46D0200B9
:102FB000B421002026610020AC6D0200BD95020006
:102FC000EC66020025610020B0210020F695020089
:102FD000D99502001596020030B585B005460C461D
:102FE00000F0B2FF90B18CB100231148082269466D
:102FF000CDE900338DF802408DF800501CF04EFBF7
:10300000044628B101460B481CF02BFC05B030BD2E
:103010000A2022F0A6FC08220DEB02010448CDE9AB
:1030200002441CF03BFB01460028EFD00248EBE7CE
:10303000D46C0200359602006896020001481CF02C
:1030400010BC00BF9D96020070B50F4B1C7824B9D0
:10305000BDE870400D4822F0FABE4EF660235C4396
:103060004FF4004540F2E73000214FF47A7200231C
:10307000E4FB0501FDF744F8BDE8704002460B464D
:10308000034802491BF074B9AB0C0020300000204B
:10309000B0200020014822F0DABE00BF300000203E
:1030A0002DE9FF4166481CF0DCFB66481CF0D9FBAB
:1030B000654B664800241C701CF0BEFA30B1644AAF
:1030C0006248009423462146FDF79EF961481CF0B2
:1030D000B3FA40B160484FF4B0111CF007FB5E48F2
:1030E00000211CF0EFFA5D481CF0BBFB5C4901229B
:1030F00000234A60C1F80035A1F5D8310A6101F515
:1031000088314A60C1F80035A1F530418A60554ADE
:10311000C1F800354FF0FF31C2F8081319469A0084
:1031200002F1804202F5C0420133082BC2F81015AB
:10313000C2F80011F3D14B4B0920C3F87C11FFF703
:1031400089FE0A20FFF786FE1F20FFF783FE414815
:103150001CF072FA70B14048FFF7F6F90146FFF72C
:103160008FFE03A80391FFF7DFF9039A0123934031
:10317000C0F80C353C483D4D3D4E1CF072FB002420
:1031800001272846FFF7E0F90146FFF779FE03A87B
:103190000391FFF7C9F9039B07FA03F3C0F8083559
:1031A0000A463046214601341CF05BFB042C05F135
:1031B0000805E6D1DFF8BC802F4C304F304E00259B
:1031C0004046FFF7C1F90146039003A8FFF7ACF9A9
:1031D000039B00EB83000A46D0F8003723403B43B3
:1031E000C0F800372946304601351CF03AFB032D64
:1031F00008F10808E4D117481CF01EFAB8B12148BC
:10320000FFF7A2F90390014603A8FFF78DF9039B8E
:103210001D4A00EB8300D0F80037234043F44033CD
:1032200043F00C03C0F8003718481CF01AFB18488C
:103230001CF017FB174804B0BDE8F0411CF011BBAF
:10324000BB960200DF960200A90C002078670200FE
:1032500040420F00EC660200886D020008970200F1
:1032600000C001400060004031970200C46D0200C0
:1032700073970200AC6D0200F0F8FCFF040002003E
:10328000AA970200A46D0200E0970200E4970200F2
:10329000209802005A98020008B506481CF0E1FA8E
:1032A0004FF080430122C3F80025BFF34F8F20BFAA
:1032B000FDE700BF7A98020030B5002308491846A0
:1032C0000C46002214F8015B0DB10130C0B201328E
:1032D000042AF7D10133032B01F10401F0D130BDF1
:1032E0002661002008B5054B187828B1FFF7E4FFE8
:1032F000012894BF0020012008BD00BF25610020E7
:103300002DE9F04FAE48AF4C85B01CF0AAFAAE489C
:10331000A0621CF091F900285AD1AC481CF0A1FA27
:10332000AB4C20461CF088F9F8B1AA49AA481CF019
:10333000DDF9AA49AA4B4B6010238B60A368DB69B7
:1033400013B1012220469847A2682369946964B1A9
:103350001B689F4813F0100F14BF4FF000734FF01D
:1033600080634FF0A0720421A0479E4D00242846A0
:103370004FF4B01101341CF0B9F9042C05F1080523
:10338000F5D199484FF480311CF0B0F997484FF4CB
:1033900080311CF0ABF996484FF480311CF0A6F94F
:1033A00094481CF049F940B193481CF05AFA934BE9
:1033B0001978934B1878FFF707FD924C20461CF0C4
:1033C0003BF9002840F0CE808F481CF04AFAD3E049
:1033D0004FF47521A06A216001AA21F0D8FE0028CF
:1033E0009ED1029BA38120460323E38101F08AF84A
:1033F00008B1864892E7864E012332466421204672
:103400001CF0CEFF002802DD3378022B07D9002301
:1034100033707F4A6B480123642101F0D3F97D4C5E
:10342000DFF8A091DFF8F0A1DFF8F0B1002505F595
:103430009677BFB2224639463D2348461CF0B0FF7E
:103440003D280246294605F1010851D174481CF077
:1034500008FA4546032D04F13D04E8D1714CDFF82C
:103460006491DFF8C4A1DFF8C4B1002505F5C87781
:10347000BFB239469123224648461CF091FF91285D
:10348000294605F1010856D169481CF0EAF945467C
:10349000082D04F19104E9D13278664803211CF02B
:1034A000E0F9484801230DF102026A211CF078FF7F
:1034B000002805DD9DF80230782B9CBF5E4A137012
:1034C0000DF103023F48012369211CF069FF002828
:1034D0004A4A05DD9DF80330003B18BF01231370F5
:1034E000474B11781878FFF76FFC1CF0CAF817E704
:1034F00050461CF0B6F93D220021204623F072F818
:1035000043465A46102120461BF05EFD022301224D
:10351000043584F8373084F83A30FF23227484F875
:10352000392084F83C30A5743D232246394648466C
:1035300001F048F98DE750461CF093F991220021E3
:10354000204623F04FF843465A46102120461BF0F0
:103550003BFD00232374224691233946484601F05F
:1035600031F994E7A36835491B682046984701461E
:1035700020B333481CF075F9FFF782FA31481CF08C
:1035800070F90524FFF792FCFFF736FBFFF7AAFE60
:10359000002861D02C481CF064F92C481CF061F91B
:1035A00015201BF0F2FF0024FFF79CFE002878D0C6
:1035B000642C6DD126481CF054F952E0254804E7EC
:1035C000A19802008021002064670200D4980200C4
:1035D000EC66020010000100A46D020074210020BE
:1035E00065250000C46D0200AC6D0200B46D0200E0
:1035F000BC6D020078670200289A0200A90C002026
:10360000AA0C0020506702004B9A0200FB980200AF
:103610006C6000206D600020539902009A990200AE
:103620001E990200E45B0020C2990200F499020096
:10363000A5990200FB990200AB0C0020966D0200D8
:103640006A9A0200BF9A0200E89A02001F9B0200D9
:10365000499B0200959A020032201CF066F8013C5A
:1036600090D1134D134C2B78FBB1FFF71FFCFFF7E4
:10367000C3FA1CF006F823684EF65F22C31A934281
:1036800002D92060FFF7FCF901201CF04EF8EAE7B0
:10369000FFF70CFCFFF7B0FA32201CF046F80134BB
:1036A00082E7642C86D0044885E76420EDE700BFFC
:1036B000AC0C0020E4210020789B0200014B18781C
:1036C000704700BF24610020014B1870704700BF95
:1036D00024610020014B1870704700BFAC0C002023
:1036E0002DE9F04385B000F02FFC00285FD0554B4A
:1036F000554D93F800C0554F0024CCEB0C12CDE98A
:1037000002440CEB820301942B4402201946BE466E
:1037100000261EF8012BB2B191F8109091F811809B
:103720008A7CB9F1010F45D19DF80890072848EA35
:1037300009088DF8088006DC2AB100F11008E84479
:10374000013008F8082C0136042E01F10301E0D104
:103750000134032C07F1040703F10C03D6D13C4BD1
:103760001B78C3B13D2303FB0C5292F8341092F83E
:10377000353092F83620012940D19DF808100728ED
:1037800043EA01038DF8083005DC22B100F1100393
:103790006B4403F8082C08220DEB02012D481BF0A6
:1037A0007DFF04222C480DEB02011BF077FF05B0D2
:1037B000BDE8F083B9F1020FC5D1012A06D19DF809
:1037C000042042F001028DF80420BCE7022A04D153
:1037D0009DF8042042F00202F5E7032A04D19DF887
:1037E000042042F00402EEE7042A03D101228DF8FE
:1037F0000720A8E7052AA6D1FF22F8E70229CAD1A7
:10380000012A06D19DF8043043F001038DF80430FD
:10381000C1E7022A04D19DF8043043F00203F5E722
:10382000032A04D19DF8043043F00403EEE7042A90
:1038300003D101238DF80730ADE7052AABD1FF2373
:10384000F8E700BF6C6000206D600020266100205A
:1038500025610020D46C0200246D0200022810B5FE
:103860000DD8074C6421207022460648012300F041
:10387000A9FF21780448BDE810401BF0F2BF10BD3D
:103880006C60002080210020A59B020013B5044637
:1038900090B90A4B01461878FFF796FA003C18BF1A
:1038A000012401230DF10702692105488DF8074025
:1038B00000F088FF02B010BD0121EDE7AA0C002046
:1038C0008021002010B57828074C28BF7820207070
:1038D00022466A210548012300F074FF217804483C
:1038E000BDE810401BF0BDBFAB0C002080210020C4
:1038F000C29B020010B5072888B0044615D80146BF
:103900000B481BF0AEFF00220023CDE90623002365
:103910000722CDE90323CDE901330649064B0748C9
:1039200000944FF480621AF005F908B010BD00BF92
:10393000E59B0200807A0020B92C000010100020C6
:103940000346042B13B5084634D101290AD11D4B77
:10395000187863282CD80130C0B202B0BDE81040FE
:10396000FFF732BA022905D1164B187800B3013897
:103970000121F1E703291BD1134C124B2178187850
:1039800081F00101FFF720FA23788DF807300DF15F
:103990000702012369210D4800F014FF21780C4A29
:1039A0000C4B0D4800290CBF114619461BF059FF5E
:1039B00002B010BD052BFBD102B0BDE81040FFF7EF
:1039C00099BF00BFAA0C0020A90C00208021002074
:1039D000B48A0200019C0200049C020010B41B4B3C
:1039E00019781B4BC1EB011201EB82021A4470B132
:1039F00092F838403D2202FB013393F8372093F8C8
:103A00003900022A0DD110BC0121FFF715B992F837
:103A10003B403D2202FB013393F83A2093F83C00EF
:103A2000EFE7012A04D10146204610BCFFF7D4BAC3
:103A3000052A02D110BCFFF75DBF042A04D101465C
:103A400010BC1046FFF77CBF10BC70476C600020B4
:103A50006D600020022810B414D8032912D80A4B34
:103A60001C7810223D2313FB0423032212FB013296
:103A70000C2313FB0020054B10BCC218185C917876
:103A8000FFF75EBF10BC70476C6000206D600020C7
:103A9000011EF8B534D0244B1878C0EB001200EBAF
:103AA0008203224A11DC3A33134449425E789D78FE
:103AB0003D2303FB002292F83A30013B042B1FD830
:103AC000DFE803F0120D1E1F2C00373313445E781D
:103AD0009D783D2303FB002292F83730EDE728461E
:103AE000BDE8F840FFF7A8B80429A8BF04210F4695
:103AF0000024294630460134FFF76EFAA742F8D178
:103B0000F8BD0829A8BF08210C4600262946042034
:103B10000136FFF715FFB442F8D1F1E72846BDE8BA
:103B2000F840FFF7E7BE00BF6C6000206D6000202A
:103B30000C2810B510D10A4B1A780A4B3D2101FB15
:103B4000023090F83400041F012C05D801FB023329
:103B500093F83610FFF7F4FEBDE81040FFF7C0BD44
:103B60006C6000206D60002070B5094C20461BF091
:103B700063FD58B1A3689D6945B12046AC4600235A
:103B8000BDE870404FF400120421604770BD00BFD3
:103B9000EC66020001481BF064BE00BF1A9C0200E4
:103BA00000B5104A137889B0CBB9012111700020FB
:103BB00000216FF00802CDE90601CDE90232CDE91E
:103BC000003304930849094B09484FF4006219F087
:103BD000B1FF084809B05DF804EB1BF042BE09B024
:103BE0005DF804FBE24B002040720020013300002E
:103BF000900F00203E9C0200132108B51EF0B1FE7C
:103C0000014620B1BDE8084001481BF02ABE08BDAE
:103C1000659C020008B513211EF0A3FEBDE8084014
:103C2000014601481BF01DBE8A9C020008B500F049
:103C3000C3FFBDE80840014601481BF012BE00BFAB
:103C4000B19C020010B5044640B101460C481BF07F
:103C500008FE2046BDE810401BF0CCBC09481BF014
:103C600000FE094B01241C701CF0F5FB01460748BF
:103C70001BF0F7FD2046BDE810401BF086BC00BFDE
:103C8000DB9C0200FB9C020033610020179D0200B8
:103C900070B503788AB004460E4607AD032B20D8D2
:103CA000DFE803F002191B1D11492846FCF79CFBB5
:103CB000059563780493A3780393E37802932379BB
:103CC000019363790093A3790A4A1E2130461BF0C1
:103CD0007BF90AB070BD0849E7E70849E5E70849FC
:103CE000E3E7084A0A2128461BF06EF9E0E700BF27
:103CF000329D02005B9D0200399D0200409D020042
:103D00004A9D0200549D020030B589B00D4614460C
:103D10001EF0B7FE6946FFF7BBFFB4B913482A4649
:103D200069461BF09EFD012D0AD9114B1148012255
:103D30001A70114B1C701AF0ADFA05201BF025FC0F
:103D400004201BF022FC09B030BD094B0B480022B7
:103D50001A70094A137801331370694623462A46BC
:103D60001BF07FFD20461BF03AFCE9E77E9D020038
:103D7000346100202003002032610020A29D020057
:103D800030B58BB00C461EF07CFE02A9FFF780FF19
:103D90000C4A13780BB1013B13700B4B0B480025F9
:103DA0001D7002A9137822461BF05BFD03236846B1
:103DB000CDE900558DF800308DF80440FEF768F825
:103DC0000BB030BD3561002034610020CC9D020075
:103DD00030B589B00C4605461EF053FE6946FFF724
:103DE00057FF34B11148224669461BF03AFD09B02D
:103DF00030BD0F4A0F4813780133DBB213700E4AFF
:103E0000694614701A461BF02CFD022128461EF04C
:103E1000DFFD014628B110F1780F02D007481BF0F2
:103E200020FD02201BF0B1FBE1E700BF0E9E020067
:103E3000356100202C9E020034610020569E020055
:103E4000F0B5274B1A788DB042B1264800221A707F
:103E50001BF007FD4FF47A701BF078FC03F002FCB6
:103E6000014628B110F1780F02D01F481BF0F9FC71
:103E70001E4C0FCC02AD0FC527681D492F600026D0
:103E800000963346022202A803F0BAFB014620B393
:103E900010F1780F06D117481BF0E3FC00242046F0
:103EA0000DB0F0BD14481BF0DCFC103C32201BF0C0
:103EB0004DFC0FCC07AD0FC50D492F603346009662
:103EC000022207A803F09CFB044608B90B48E3E76D
:103ED00001460B481BF0C5FCE1E70A48DCE700BFE0
:103EE000AD0C00207B9E0200C39E0200606A0200AF
:103EF000E46D0200F99E02001B9F0200509F020029
:103F0000809F0200A89F020010B503F0ABFB04469F
:103F100058B110F1780F08D010F1160F05D00146F6
:103F200004481BF09EFC204610BD03481BF099FC82
:103F30000024F8E7CF9F0200F69F0200014B18789B
:103F4000704700BF35610020034B187808B1034B60
:103F5000187800F0010070473561002034610020BE
:103F600008B5FFF7D1FF01200449002204F002F850
:103F7000BDE8084002481BF074BC00BFF93B0000DC
:103F800010A0020010B523481BF06BFC224B1B78DD
:103F9000002B39D0FFF7B8FF20490022012003F0A1
:103FA000E9FF4FF4FA701BF0D1FB1D49002002F02D
:103FB000F5FC044601461B481BF053FCFCB91A48AB
:103FC0001BF04FFC00F0F8FD014618481BF049FCBF
:103FD00017481BF046FC17481BF043FC4FF4FA70DF
:103FE0001BF0B4FBBFF34F8F1349144BCA6802F4A4
:103FF000E0621343CB60BFF34F8F00BFFDE7104873
:1040000021461BF02EFCDDE70E481BF02AFC6FF06A
:104010000A0010BD2BA0020033610020153C0000F7
:10402000B8A402007EA0020099A00200D9A002005C
:10403000F8A0020040A1020000ED00E00400FA0533
:10404000B6A0020046A0020030B5584893B01BF05D
:1040500008FC3022002106A822F0C4FA544810902F
:104060000023019321F082FC044698B951481BF0CB
:10407000F8FBFEF72FFAFEF733FA4F4802F0A4FDE3
:104080000146002800F08A804C481BF0EAFB002023
:1040900013B030BD4FF475211098069103AA21F09A
:1040A00076F8014618B146481BF0DBFBE1E7049ABD
:1040B000ADF8242006A84FF44053B3FBF2F3ADF85B
:1040C000263000F01FFA0146E8B13E481BF0C9FB5C
:1040D00002A9032000F04EFC014608B13A48E3E78C
:1040E000029882681CF064F9054602981CF05FF99A
:1040F00015B129463548D7E706A800F003FA01466E
:1041000010B13348D0E7044604230DEB03024FF40B
:10411000FE4106A81CF044F9042803D12D4B019A56
:104120009A42A6D0C4B902A9032000F023FC01469C
:104130000028D3D10298214682681CF039F9044640
:1041400002981CF034F90CB12146D3E706A800F020
:10415000D9F901460028D4D102A9042000F00AFCB4
:10416000014608B11C489FE7029882681CF020F9BC
:10417000044602981CF01BF914B11848214693E735
:10418000144B019304234FF4FE410DEB030206A8E8
:1041900000F018FB00EAE071114885E74FF0FF31AD
:1041A0004FF0FF301AF0DAFB71E700BF61A10200A7
:1041B0006467020097A10200453C0000DB9C0200FE
:1041C000C9A10200F3A1020038A202005DA2020010
:1041D00083A20200314D5442B5A20200E1A20200C6
:1041E0000EA3020010B5094C0A44914200D110BD43
:1041F00011F8013B584003090001E35CC0B24340A1
:1042000018091B01205CDBB25840EEE753A3020003
:10421000014B1B68184700BF3003002030B585B044
:1042200004460D4610220021684622F0DBF90223E5
:104230008DF802302A46044B0193214668461AF055
:1042400055FF05B030BD00BF1142000080B50546E6
:104250000E46174698461AF09BFB034622F0D2F909
:10426000DFF81890044649F8003042463046394697
:10427000A84754F8090001F011F900BF0800000038
:104280002DE9F047058B04462807904611D40229F2
:1042900005F0070540F0CD8020461BF0BAFC78B150
:1042A0000138218B042811D8DFE800F0C3106D8598
:1042B000950001290CBF45F0100545F02005258328
:1042C00088F31188BFF36F8FBDE8F08701F0070A0C
:1042D000AA4500F0A6800027B9463E46A368002BF9
:1042E00000F0BD8041F00801218388F31188BFF3FD
:1042F0006F8FA168002900F0BB800D68002900F0D5
:10430000B780D1F80480334652462046C047002D7E
:1043100076D02B6829461D46F0E701F007035A1FA7
:10432000012A1BD8002221F00701062B276889B239
:10433000C4E9002209D13B4603E0628B013262836B
:104340001B68002BF9D141F00201218320461BF0AC
:1043500060FC00287BD041F0200177E0042B0AD1DB
:1043600021F0070189B2218320461BF052FC10B1D5
:1043700041F020012183218B01F0070AAA4550D08A
:104380000027B946AAE7236921F0070141F0060199
:10439000062DD3F8009021832DD1B9F1000F40D024
:1043A00041F00801218388F31188BFF36F8F3A49E8
:1043B0002046C84729E021F00701236941F00401A4
:1043C00089B2042DD3F804902183E6D000273E461D
:1043D0004FF0040A82E721F00701236941F005014B
:1043E00089B2052DD3F808902183D6D000273E4608
:1043F0004FF0050A72E700273E464FF0060A6DE7C8
:104400002B4687E7B9F1000FD1D14FF02003EFF32E
:10441000118883F31288BFF36F8F238B23F0080377
:104420002383258BEA062ED525F01003238305F080
:1044300007056669218B002EBFF66FAF0023276842
:10444000C4E9003321F0070141F001012183218BF0
:1044500001F0070AAA454FF000097FF43FAF002F93
:104460009BD041F00801218388F31188BFF36F8F3F
:10447000002FC7D03D6839463346524620461BF0D0
:10448000F4FB2F46F4E7AB067FF51AAF25F02003C7
:10449000238305F00705FFE697FC010017F0A2BE95
:1044A0002DE9F7430F4606460821C06ADFF8509011
:1044B0001BF057FD3C68241A80463C6004EA09055D
:1044C000AC4203D8002003B0BDE8F08308236A465D
:1044D000214630461BF0B8FC0028F4D1694630462E
:1044E0001BF049FD40B1BDF80230BDF804203C602E
:1044F00005EA090513441D44A4EB0804E0E700BFE6
:104500000000FFFF2DE9F047044688B000F11407D2
:10451000384621F009FBA06A8368DB689847E062AF
:1045200028B96FF01505284608B0BDE8F087A06AE5
:104530008368DB6898470368013B1F2BF1D8A06AAA
:10454000216805AA20F023FE0028EAD1A589002DC4
:10455000E7D0069BB5FBF3F203FB1255002DE0D12B
:10456000E389012BDDD9E36A009593F804904FF0BD
:10457000FF334FF0FF32384619F004FCE06A08219F
:104580001BF0EFFCA8460646E3891FFA85FA53455F
:1045900008D8E389434523D1384619F06DFC6FF004
:1045A0002C05C0E7A1892B04891B13FA81F14A4627
:1045B0000823204600911BF095FC78B169462046FF
:1045C0001BF050FC08F10108009908234A462046D8
:1045D0001FFA88F81BF086FC0028DAD00135D3E7F3
:1045E00053450BD1009908234A46891B20461BF0EE
:1045F00079FC18B9694620461BF034FC6946204610
:10460000FFF74EFF054618B1384619F035FC8AE72A
:10461000009B63604FEA13484FEA0848C4F80880DB
:10462000D4E9011399420FD3082301AA20461BF0B5
:104630000BFC05460028E7D101AB13F8012B91458F
:1046400033D10135082DF8D163681B0C1B04694672
:10465000204600931BF006FCA38900994A46204699
:104660001BF040FC051ECFDB636876D006EB030829
:104670004FF6FF79A389CDF800801FFA88F29B1BC3
:104680009A422ED300236168002B43D0090C090401
:104690000091204669461BF0E5FB009920461BF07F
:1046A00046FC0546002D74D0AEE701A920461BF05C
:1046B00062FC626810B9921B6260B1E7BDF80850F5
:1046C000BDF80610E06AC4F8088029441BF049FCD4
:1046D00040449042A060EED1002DECD06FF01C055C
:1046E00068E0082303AA414620461BF0ADFB0546BF
:1046F000002889D103A920461BF03DFC30B1BDF84C
:104700000C304B4502D1BDF810300BB1B044B1E7CD
:104710000123B8E720461BF00AFC054600287FF479
:1047200073AF6368264AA18913400B44A3EB460389
:1047300063601340A36020461BF001FDB1E75B1AE4
:104740004A4620461BF0CEFB051EFFF65DAF08D0A3
:10475000E26AA36812681344A360D4E901318B4272
:10476000EDD86168A38901EB46029A429AD1DFF83D
:104770005080A26801EA08039A4293D020461BF0B9
:10478000D6FB054600287FF43FAF636803EA0803C1
:10479000A360A389A288A3EB46039A4206D03846B9
:1047A00019F06AFB012323740025BCE620461BF0A8
:1047B000AFFC0546384619F05FFB002DF2D0B2E69B
:1047C0000000FFFF2DE9F04F1D46037C89B0044631
:1047D00089469046002B00F0BF80C26A082110462F
:1047E0001BF0BFFB2946824610461BF0BAFBA3898B
:1047F000A3EB8A039D42074600F2B1801DB1B8F1D8
:10480000000F00F0AC806368039304AA03A920465C
:10481000DDF80CB01BF0E7FB0646002865D1BDF8BB
:1048200010304B4505D06268039B9A42EDD1E5B943
:104830005BE004A920461BF09EFB0028F3D0BDF8E6
:104840001200BDF8143075B19D420ED14FEA1B41E4
:10485000090401442B46424620461BF010FB002869
:1048600003DC064641E0002B3FD0002F41D104F18C
:10487000140301934FF0FF324FF0FF3304F11400A3
:1048800019F080FADFF8DCB0E3899E4261D0D4E908
:104890000123F9188A422FD3ADF81A3006A8FF2356
:1048A0008DF81E30ADF81890ADF81C501BF011FBC0
:1048B000A1682B46424620461BF0DFFB2946824674
:1048C000E06A1BF04EFBA2680244A260BAF1000F3E
:1048D00007D106A920461BF00AFC002814BF824617
:1048E000AA46019819F0C8FA5646304609B0BDE804
:1048F000F08F5744BFB2BAE7E06A08211BF031FBE2
:104900004FF6FF73ADF8183000218DF81E30A389E3
:10491000ADF81C10111802EA0B021A44101A60605C
:1049200006A8ADF81A101BF0D4FA06A920461BF011
:10493000DEFB211D20461BF095FA636803EA0B039A
:10494000A36020461BF0FBFB82460028C9D101363C
:104950009AE76FF01B0AC4E76FF00C06C5E76FF02B
:104960001506C2E70000FFFF014B036000207047FF
:10497000F46D020070B5114B1C680D46DCB1104B94
:10498000196800238B4202DB6FF0010070BD2246E4
:1049900012F8106B864202D001331446F2E7E06849
:1049A00010B96FF01200F1E720F0E0FF0028F8D016
:1049B0002C600020EAE76FF00C00E7E734030020EA
:1049C000F46D020070B588B005460C46C0B2694669
:1049D0001646FFF7CFFF00281BDB0098C8B14368DD
:1049E0000293836822680195CDE903360023CDE95F
:1049F00006230593C5681BF0DAFC6DB1284608490B
:104A000001AA20F0C8FB079808B9059B236008B0ED
:104A100070BD6FF01500FAE76FF01200F7E700BF06
:104A2000D90302001FB507240294044C0194BDF879
:104A3000184000941FF036F904B010BDB30C0020EC
:104A400010B5084C86B024788DF8174001240294E4
:104A50000DF117040194BDF8204000941FF022F9D5
:104A600006B010BDBA0C002000B589B064288DF8DE
:104A7000070019D80E4B18221870002102A821F047
:104A8000B1FD0C4B03930DF10703049302A901231D
:104A90000020ADF8143005F0CFFB10F1800F08BFF7
:104AA000002009B05DF804FB6FF01500F9E700BFC6
:104AB000BA0C0020E86E02002DE9F0410F4B1C6893
:104AC00005460E461746ACB14FF0FF324FF0FF33AC
:104AD0000B4819F057F963683246D3F80880294625
:104AE0003B462046C0470446054819F0C5F9204614
:104AF000BDE8F0816FF00104F9E700BFE821002074
:104B0000780D002000230360044B5A6812B9C3E9F2
:104B10000000704710605860704700BFEC21002013
:104B2000014B1860704700BFE821002030B585B008
:104B300000230546CDE9023301904FF0FF330C48C6
:104B40004FF0FF3219F01EF90A4B1C684CB9284689
:104B500000F0CEF80446064819F08EF9204605B05C
:104B600030BD636820461B6801A998472468EDE7BB
:104B7000780D0020EC2100201FB5CDE90101039242
:104B80004FF0FF330A484FF0FF3219F0FBF8094BA2
:104B90001C682CB9064819F06FF9204604B010BD06
:104BA000636820461B6801A998472468F1E700BFA5
:104BB000780D0020EC2100202DE9F041194B1E68F2
:104BC00066B373685B680BB130469847164C174F55
:104BD000DFF85C800025BC420FD3164B1C68ACB1DB
:104BE000134F143C236923B138469847002D08BF62
:104BF0000546646954B1143CF4E7236913B1404697
:104C0000984705B1284614340546E4E77368DB6825
:104C10000BB1304698472846BDE8F0816FF001059A
:104C2000F9E700BFE8210020E46902005C6A0200A5
:104C3000B94A0000F4210020024B0022C3E90022FF
:104C4000704700BFEC210020024B0022C3E9002284
:104C5000FFF7F2BFF42100202DE9F74307460C4689
:104C600009B100230B601F4DDFF87C9000264D45F5
:104C70000FD31E4B1D6885B355F8148C01AA41460D
:104C80003846143D1BF0EEFB10B3D6B914BB2E46CC
:104C90001EE0D5F8008001AA414638461BF0E2FB31
:104CA00050B116B954B92E4606E03168002240468C
:104CB0001BF0D8FB0028F5D11435D8E7019B236001
:104CC000F1E73168002240461BF0CCFB0028DDD123
:104CD0006D69D0E7019B2360D9E7304603B0BDE89A
:104CE000F08300BFE46902005C6A0200F421002046
:104CF000F8B5184C184F06460025BC4208D3174B90
:104D00001C682CB3143CB6B9E368E3B96469F8E7EE
:104D10002EB9E3685BB9284614340546EDE72068F0
:104D2000002231461BF09EFB0028F2D1F3E79847A2
:104D3000002DF0D1F0E72068002231461BF092FBF5
:104D40000028E1D1E2E79847002D08BF0546DDE7DE
:104D50002846F8BDE46902005C6A0200F4210020E4
:104D600038B50C4D0C484FF0FF334FF0FF3219F0BF
:104D700009F82B783BB9FFF767FF00F06DF80446A0
:104D800010B901232B700024034819F075F8204650
:104D900038BD00BF36610020780D00202DE9F047B6
:104DA000048FDFF8B0A0013498B080468946A4B2E1
:104DB00000F10806651EADB2B5F5004F47D04A2395
:104DC00005AA294630461BF0EBFA04F57F543F3420
:104DD000A4B20746214601230DF10B0230461BF019
:104DE000DFFA002F014603DC002803DC2C46E1E754
:104DF000002816DCB8F83830AB4209D142466B1EA9
:104E000022F8383F4FF4004102233046FFF7DAFC26
:104E1000294630461BF060FA214630461BF05CFA0A
:104E2000E4E707F160030DEB0307002307F84C3CB0
:104E30005246CDF8009003AB05A80396ADF810409C
:104E40001BF046FB0028D1D018B0BDE8F087002049
:104E5000FAE700BF3F0502007FB501236946042041
:104E60000193FFF787FD044660BB02AA01A9042055
:104E7000FFF7A8FD044610B110F10C0F22D10399E1
:104E8000B1F5803F23D2009A002394681846084465
:104E900084421AD30133082BF9D10E4DA982EB823B
:104EA0005368AB602846D368EB631BF0E2FB044613
:104EB00040B9094E6E602846FFF724FE28466E6012
:104EC000FFF72EFE204604B070BD9BB2E5E76FF001
:104ED0002004F7E7FC21002084030020014B186820
:104EE000704700BF98030020F0B5082289B01BF07E
:104EF00094FDCB6A03930B6B04934B6B05938B6B05
:104F00000693CB6B079313466A460C46064600276A
:104F100011461046CDE9017700971BF091FC314610
:104F2000054630461BF08CFC216B0391616B0491AC
:104F3000A16B0591E16B0544CDE9061710461146BA
:104F40001BF07EFC3146054430461BF079FC0544DD
:104F5000206A0090606A0190A06A0290A06B06909F
:104F6000E06B07903046CDE9047703971BF068FCAF
:104F70000544606A0090A06AD4F838C00190E06AE5
:104F80000290CDF810C0606BD4F83CC00390CDE91E
:104F900005C0206A079030461BF052FC0544E06AC9
:104FA0000090206B0190606B0290206A0690A06ACE
:104FB00007903046CDE9047703971BF061FD236B22
:104FC0000093636B0193A36B0293E36B0393636A98
:104FD0000693E36A07932D1A082330461BF050FD11
:104FE000636B0093A36B0193E36B0293236A0393B8
:104FF000636A0493A36ACDE90537236B07932D1ADF
:10500000082330461BF03CFDA36B0093E36BCDE916
:105010000137636A0393A36A0493E36A0593636B9E
:1050200007932D1A082330461BF02AFD2D1A10D4A1
:105030000D4C35B90822314620461BF0FAFC0128F8
:105040000FD008232246314630461BF019FD2D1A99
:10505000EFE7054A0823314630461BF0F1FB2D18D7
:10506000F8D409B0F0BD00BF286F02000449431E08
:105070000F3013F8012F8A5C1A708342F9D1704700
:105080007EA30200F0B5264E07460C460FCE8DB02B
:1050900001AD0FC50FCE0FC596E8070085E80700E4
:1050A0003846002F38D0002C38D0381F2146024611
:1050B00010344B780D781B0443EA0563CD782B43FD
:1050C0008D78043143EA05238C4242F8043FF0D145
:1050D000144C04218A07036916D1C3F30742A55C67
:1050E0001A0EA25C42EA0562C3F30725DBB2655DD6
:1050F000E35C42EA054242EA032221F00303303333
:105100006B4453F82C3C534050F8042F013153406A
:105110002C290361DED101200DB0F0BD2046FBE754
:10512000746A02007EA3020030BFFFF7FDBF00BF1C
:10513000114B124A2DE9F041D518DFF84480013DAA
:10514000B5FBF3F55D430F4B08EB0304013CB4FBE7
:10515000F3F403FB04540E1B07460B49304621F0C1
:1051600019FA701942460021083E21F03BFA7E6789
:1051700004F10800BDE8F08101000000000000001B
:1051800008000000040000005C6A0200044B9968FB
:105190005869884203D003494FF080520A60704733
:1051A000384B002004ED00E070B5264B15469A6A96
:1051B00012F0100F9A6A14BF1124102412F0080F75
:1051C0009A6A18BF1224920706460AD5586B9A6A43
:1051D000140634D519B19A6A22F080029A62132417
:1051E00001E06FF01500174B9A6A12F0010F9A6AEE
:1051F00018BF142412F0200F9A6A18BF1524D20683
:1052000002D49B6A9B070AD50E4B5B68190506D52D
:10521000314600F03DFA10B180F309880224094BB1
:105220009A6A920642BF5A6A22F400525A629A6AF5
:1052300042F0FF029A6200232B70204670BD6FF08F
:105240001500CCE700ED00E0134B9A6A12F0007FE6
:105250009A6A14BF1E201D2012F0807F9A6A18BF20
:105260001F2012F4002F9A6A18BF212012F4802FF9
:105270009A6A18BF222012F4003F9A6A18BF2320AE
:1052800012F4803F9A6A6FEA02426FEA12429A620F
:1052900018BF2420704700BF00ED00E010B5194B87
:1052A0000246986A9C6A10F4805F14BF172016208B
:1052B00014F4006F9C6A18BF1820A40509D5986BD8
:1052C000986A000404D51AB19A6A22F400429A62DC
:1052D00019200C4B9A6A12F4806F9A6A18BF1A2030
:1052E000D2050CD49B6A13F4005F18BF1C20054A3A
:1052F000936A43F47F43936200230B7010BD1B201D
:10530000F5E700BF00ED00E0F0B5484B5B688BB0FF
:105310000446C3F30803002585F31188BFF36F8F9C
:1053200002F07F40B0F17F4F11D102F00C0008284D
:105330000DD010074CBF0C4601250022033B8DF811
:105340000720032B05D8DFE803F0246367602C46B1
:10535000F3E700239DF80720CAB902AE04F1200745
:1053600020686168324603C20834BC421646F7D151
:10537000099A002D54D0C2F3080121B96FEA5222D4
:105380006FEA4222099202A918461CF0A0FA0BB05B
:10539000F0BD264BDA6A9107DBD4DA6A002AD8DB43
:1053A000DA6A5200D5D55A69A16942F480725A610D
:1053B000BFF34F8FBFF36F8F5A6931F8021C22F48D
:1053C00080725A61BFF34F8FBFF36F8F4DF6027239
:1053D00091420AD09A6AD2B24AB10DF10702012174
:1053E0002046FFF7E1FE0346B4E72368B2E79A6A76
:1053F00012F47F4F05D00DF107010120FFF74EFF9A
:10540000F1E79B6AB3F5803FA3D3FFF71DFFEAE7FF
:105410000DF107020021E3E70DF107010020EDE7A0
:1054200022F4FF7222F00102ACE700BF00ED00E0C1
:10543000024A536943F010035361704700ED00E0E6
:10544000EFF30880EFF3098101B57246FFF75CFFC7
:1054500001BD00BF044800232021C2180133302BB6
:1054600082F80013F9D1704700E100E0FFF716F869
:10547000202080F3118808484FF40461401880F31D
:105480000988EFF314800221084380F31488BFF3E6
:105490006F8F00F0BDF80000C0910020084B9B68A2
:1054A00083420BD1EFF3058343B1064B5A6842F0B8
:1054B00080525A605A6A22F400425A6219F06EBA57
:1054C000384B002000ED00E0094A0A49936809685A
:1054D000D967094998674B6843F080534B600023B4
:1054E00083F31188BFF36F8F9368D86F704700BF45
:1054F000384B0020AC88020000ED00E015498A68B6
:105500004FF030001044EFF3098C80E8F01F2020AA
:1055100080F31288BFF36F8F0F4F4FF000664A6918
:105520008A603E604FF07404141920680B4C2060B0
:10553000906F0023936780F3118804B5104600F044
:1055400019F9BDE8044002F1300090E8F01F8CF337
:1055500009887047384B002004ED00E03C22002011
:105560001EF0040F0CBFEFF30880EFF30980816990
:1055700011F8021C0229FFD001B51CF0AAF901BDE7
:1055800040B2002807DB044A4109012300F01F0054
:10559000834042F82130704700E100E040B200282B
:1055A0000CDB4309064900F01F0020330122824032
:1055B00041F82320BFF34F8FBFF36F8F704700BFB9
:1055C00000E100E0054B420900F01F0053F82220E3
:1055D000012303FA00F01040704700BF00E100E033
:1055E00040B20028A8BF00F1604001F10101B8BF3E
:1055F000064B4FEA4111ACBF00F5614000F00F00CF
:10560000C9B2B4BF195480F80013704714ED00E01C
:105610000F4A08B50F4B22F07F029A60BFF34F8FFD
:10562000BFF36F8FD3F8882022F47002C3F888206C
:10563000EFF3148323F0040383F31488BFF36F8F15
:1056400018F024F919F01CFAFFF704FF18F070F9AC
:105650000000000000ED00E042F8203C009B42F812
:105660001C3C0A49019B42F8183C029B42F8143C3E
:1056700021F001014FF0807342F8043C42F8081C0D
:105680000023203A02658367704700BF4D42000047
:10569000094A0346906870B113F1160F406E05D0A9
:1056A000A0F140029A4205D8834203D2814228BF2A
:1056B0000020704700207047384B002008B5144682
:1056C0000A4A0B4B9060426F1A600D4600F052F888
:1056D000204685F30988002163B681F31188BFF362
:1056E0006F8F00220023FEF7B1FD00BF384B002072
:1056F0003C220020014910220A60704710ED00E0B2
:1057000072B6404080F31188BFF36F8FBFF34F8FA5
:1057100030BF62B6BFF36F8F704700BF72B64940AB
:1057200081F31188BFF34F8F20BF80F3118862B6D9
:10573000704700BF01B5EFF30580A0F110004FEAFC
:10574000C0000449014409C99847BDE80140024925
:1057500008470000F06702008D510000024B034A29
:105760000348012100F040B80000042000000020A0
:10577000D46F0200426E054B403A1A60044A402141
:10578000C3E901121846012100F038B84022002078
:1057900000000B15084AC2F898000B6823F01F039D
:1057A000034343F01003C2F89C308B6843F00103BD
:1057B000C2F8A030704700BF00ED00E0044B0522A6
:1057C000C3F89420BFF34F8FBFF36F8F704700BFB4
:1057D00000ED00E0BFF35F8F024B0022C3F894207E
:1057E000704700BF00ED00E010B5034C01232278A4
:1057F0001CF08EF8207010BD3761002008B5094AF2
:10580000002312781CF084F810F1160F03D0064B19
:105810000022072800DD08BDC3F89800C3F8A020C7
:105820000130F6E73761002000ED00E0F0B5454DAE
:105830002C68082C85B000F28280FFF7CBFF002097
:105840000C2684420DD1404D404F2C706846FFF726
:105850008BF800240646A6420AD1FFF7AFFF0020CE
:105860001CE0696806FB0011FFF794FF0130E8E7D0
:10587000009800EB04114FEA041CCB683B40B3F5E1
:10588000000F4AD00CD8B3F5001F30D0B3F5800F0D
:1058900038D0B3F5801F12D06FF0150005B0F0BD01
:1058A000B3F1807F42D0B3F1007FF5D150F80C30D6
:1058B00088684A681CF01CF840F4802009E050F821
:1058C0000C3088684A681CF013F840F0885040F4A7
:1058D0003020039028780728CDE90123DCD801A9DE
:1058E000FFF758FF2B7801332B700134B3E750F8E2
:1058F0000C3088684A681BF0FBFF40F0885040F489
:105900000020E6E750F80C3088684A681BF0F0FF8A
:1059100040F0007040F40030DBE750F80C3088684D
:105920004A681BF0E5FF40F08270D2E750F80C3077
:1059300088684A681BF0DCFF40F08870C9E74FF0C8
:10594000FF30ABE7E06F0200376100200000F0FF9E
:1059500008B5044819F085FF404080F311884FF0E6
:10596000020002DF7EA4020008B50649064821F0C5
:105970000701C1F1005202F580221AF00DF9002052
:1059800008BD00BFBBD200204C2200200E4A0123DC
:10599000C2F840354FF080424FF08051C2F8783560
:1059A000D1F83001082808D1D1F83411052904D8DC
:1059B0000648415C09B1C2F838364FF080430122F5
:1059C000C3F880250020704700E00140ABA402002E
:1059D00020B1034B800143F001031847704700BF1B
:1059E000F06A020070B50C4BD3E901521968D8680F
:1059F0004A4080EA050485EA02065E6082EA4522A2
:105A000081EA04064FEA745408441E609A60DC6020
:105A100001EB706070BD00BF5822002010B50F4828
:105A20000F4C836810221B682146984718B90D4B0C
:105A300001221A7010BD1FF005FE20601FF002FE4B
:105A4000094B434063601FF0FDFD084B4340A360DA
:105A50001FF0F8FD064B4340E360EBE714670200DC
:105A60005822002038610020B0C2649BD4D2D38673
:105A700078E20AA008B504481FF078FF00280CBFA0
:105A80006FF01200002008BD1467020008B5044B37
:105A90001B780BB9FFF7C2FFBDE80840FFF7A2BFB4
:105AA00038610020F8B5594EBFF35B8F3468BFF3FF
:105AB0005B8F14F0010450D0554F564C564D57484B
:105AC0003A4621461AF015FEE0B320222946204628
:105AD00020F018FD0028F2D000274FF0FF324FF0E1
